{
  "contractName": "checkShotContract",
  "abi": [
    {
      "inputs": [
        {
          "internalType": "int256",
          "name": "x",
          "type": "int256"
        },
        {
          "internalType": "int256",
          "name": "y",
          "type": "int256"
        },
        {
          "internalType": "int256",
          "name": "r",
          "type": "int256"
        }
      ],
      "name": "checkShot",
      "outputs": [
        {
          "internalType": "bool",
          "name": "",
          "type": "bool"
        }
      ],
      "stateMutability": "pure",
      "type": "function",
      "constant": true
    }
  ],
  "bytecode": "0x608060405234801561001057600080fd5b50610333806100206000396000f3fe608060405234801561001057600080fd5b506004361061002b5760003560e01c8063b580f7ab14610030575b600080fd5b61004361003e3660046101d8565b610057565b604051901515815260200160405180910390f35b6000610067620f4240600561021a565b82131580156100765750600082135b801561008f575061008b620f4240600561021a565b8413155b80156100a957506100a5620f424060041961021a565b8412155b80156100c257506100be620f4240600561021a565b8313155b80156100dc57506100d8620f424060041961021a565b8312155b61011b5760405162461bcd60e51b815260206004820152600c60248201526b496e76616c6964206461746160a01b604482015260640160405180910390fd5b6000841215801561012d575060008312155b801561014357508161014085600261021a565b13155b801561014f5750818313155b80610186575060008413158015610167575060008312155b8015610186575081836101798661029f565b61018391906102bc565b13155b806101d057506000841215801561019e575060008313155b80156101d057506101af828061021a565b6101b9848061021a565b6101c3868061021a565b6101cd91906102bc565b13155b949350505050565b6000806000606084860312156101ed57600080fd5b505081359360208301359350604090920135919050565b634e487b7160e01b600052601160045260246000fd5b60006001600160ff1b038184138284138082168684048611161561024057610240610204565b600160ff1b600087128281168783058912161561025f5761025f610204565b6000871292508782058712848416161561027b5761027b610204565b8785058712818416161561029157610291610204565b505050929093029392505050565b6000600160ff1b8214156102b5576102b5610204565b5060000390565b600080821280156001600160ff1b03849003851316156102de576102de610204565b600160ff1b83900384128116156102f7576102f7610204565b5050019056fea2646970667358221220323b7e191f337d7b0df885794c2515ad36bb7e9a35bf4221dae5f0394a3f17ce64736f6c634300080a0033",
  "immutableReferences": {},
  "source": "// SPDX-License-Identifier: UNLICENSED\npragma solidity ^0.8.10;\n\ncontract checkShotContract {\n    int256 constant factor = 10 ** 6;\n\n    function checkShot(\n        int256 x,\n        int256 y,\n        int256 r\n    ) public pure returns (bool) {\n        require(\n            r <= 5 * factor &&\n                r > 0 &&\n                x <= 5 * factor &&\n                x >= -5 * factor &&\n                y <= 5 * factor &&\n                y >= -5 * factor,\n            \"Invalid data\"\n        );\n\n        return\n            (x >= 0 && y >= 0 && x * 2 <= r && y <= r) ||\n            (x <= 0 && y >= 0 && -x + y <= r) ||\n            (x >= 0 && y <= 0 && x * x + y * y <= r * r);\n    }\n}\n",
  "sourcePath": "/home/net0pyr/web3_lab/contracts/contract.sol",
  "compiler": {
    "name": "solc",
    "version": "0.8.10+commit.fc410830.Emscripten.clang"
  },
  "schemaVersion": "3.4.16",
  "updatedAt": "2024-11-06T11:16:08.750Z",
  "networkType": "ethereum",
  "devdoc": {
    "kind": "dev",
    "methods": {},
    "version": 1
  },
  "userdoc": {
    "kind": "user",
    "methods": {},
    "version": 1
  }
}